S01700004763634170706C69636174696F6E322E737265635A
S11300000C942A000C9447000C9447000C9447006D
S11300100C9447000C9447000C944E030C94470036
S11300200C9447000C9447000C94BF030C944201B9
S11300300C9447000C9447000C9447000C94470020
S11300400C9447000C9447000C9447000C94470010
S11300500C94470011241FBECFE5D8E0DEBFCDBF0E
S113006010E0A0E6B0E0ECE2FAE002C005900D92E8
S1130070AE36B107D9F720E0AEE6B0E001C01D927C
S1130080AE37B207E1F70E940F010C9414050C94EB
S11300900000CF93C62F71110AC04FE761E08C2F87
S11300A00E94DE026FEF8C2F0E9432033FC071303A
S11300B051F44FE761E08C2F0E94DE026FE78C2F32
S11300C00E941A0333C07230C1F481110AC04FE098
S11300D061E08C2F0E94DE026FE08C2F0E943203BD
S11300E025C0813019F540EF61E08C2F0E94DE02BB
S11300F060EF8C2F0E94320319C07330B9F4811160
S11301000AC04FE061E08C2F0E94DE026FE08C2F6A
S11301100E941A030BC0813049F440EF61E08C2F38
S11301200E94DE0260EF8C2F0E941A03CF91089583
S1130130962F711105C06FE7892F0E94320308952D
S1130140713029F46FE7892F0E941A0308957230E1
S113015071F4811105C06FE0892F0E943203089564
S11301608130A1F460EF892F0E9432030895733027
S113017069F4811105C06FE0892F0E941A03089564
S1130180813021F460EF892F0E941A0308950F93A0
S11301901F93CF93DF93062FC72FD82F142F0E94BE
S11301A09800C11109C0E12FF0E0E05AFF4F6081CF
S11301B0802F0E941A032EC0C13049F4E12FF0E0D1
S11301C0E05AFF4F6081802F0E94320323C0C23067
S11301D081F4D11105C0612F802F0E941A031AC027
S11301E0D130C1F4612F6295607F802F0E941A0381
S11301F011C0C33079F4D11105C0612F802F0E9442
S11302001A0308C0D13031F4612F6295607F802FCA
S11302100E941A03DF91CF911F910F91089580E0FE
S11302200E94850360916A0070916B0080916C005C
S11302300E94490085E00E94970341E066E070E077
S113024080E00E94F20141E065E070E080E00E94FD
S1130250F20141E064E070E080E00E94F20140E0DD
S113026066E070E080E00E94690240E064E070E0D3
S113027080E00E94690240E064E070E080E00E9457
S11302806902FFCF1F920F920FB60F9211242F9382
S11302903F934F935F936F937F938F939F93AF930A
S11302A0BF93EF93FF9360917000709171006F5F43
S11302B07F4F7093710060937000072E000C880BC1
S11302C0990B0E941B0420E030E040E85EE30E94AA
S11302D07F040E94E30370936F0060936E0060914B
S11302E06A0070916B0080916C000E9498004091AC
S11302F06E0050916F004A305105D8F460916A0045
S113030070916B0080916C000E94C70041E066E030
S113031070E080E00E94690240E065E070E080E007
S11303200E94690240E064E070E080E00E9469029B
S113033048C0CA010B970397E0F44A5060916A00E1
S113034070916B0080916C000E94C70040E066E0F1
S113035070E080E00E94690241E065E070E080E0C6
S11303600E94690240E064E070E080E00E9469025B
S113037028C04E3051052CF14D5060916A007091A7
S11303806B0080916C000E94C70040E066E070E062
S113039080E00E94690240E065E070E080E00E9435
S11303A0690241E064E070E080E00E9469028091AB
S11303B06E0090916F00479724F010927100109294
S11303C07000FF91EF91BF91AF919F918F917F91B9
S11303D06F915F914F913F912F910F900FBE0F90AE
S11303E01F901895813019F130F08230E1F183309B
S11303F009F454C0089541110CC02AB381E090E07F
S113040002C0880F991F6A95E2F7809582238ABB00
S11304100895413009F05CC02AB381E090E002C045
S1130420880F991F6A95E2F7822B8ABB08954111C0
S11304300CC027B381E090E002C0880F991F6A9531
S1130440E2F78095822387BB0895413009F040C0CC
S113045027B381E090E002C0880F991F6A95E2F704
S1130460822B87BB089541110CC024B381E090E036
S113047002C0880F991F6A95E2F78095822384BB96
S11304800895413029F524B381E090E002C0880F3B
S1130490991F6A95E2F7822B84BB089541110CC021
S11304A021B381E090E002C0880F991F6A95E2F7BA
S11304B08095822381BB0895413051F421B381E0BA
S11304C090E002C0880F991F6A95E2F7822B81BBE6
S11304D00895813011F130F08230D1F1833009F484
S11304E052C00895413059F42BB381E090E002C02A
S11304F0880F991F6A95E2F7822B8BBB08954111EF
S11305005CC02BB381E090E002C0880F991F6A950C
S1130510E2F7809582238BBB0895413059F428B3C8
S113052081E090E002C0880F991F6A95E2F7822B60
S113053088BB0895411141C028B381E090E002C016
S1130540880F991F6A95E2F78095822388BB0895E6
S1130550413059F425B381E090E002C0880F991F1F
S11305606A95E2F7822B85BB0895411126C025B315
S113057081E090E002C0880F991F6A95E2F78095A8
S1130580822385BB0895413059F422B381E090E081
S113059002C0880F991F6A95E2F7822B82BB0895E7
S11305A041110BC022B381E090E002C0880F991F73
S11305B06A95E2F78095822382BB0895813099F091
S11305C028F08230E9F0833041F10895613021F45C
S11305D08AB3482B4ABB089561112BC08AB3409556
S11305E048234ABB0895613021F487B3482B47BBA5
S11305F0089561111EC087B34095482347BB0895F1
S1130600613021F484B3482B44BB0895611111C0B7
S113061084B34095482344BB0895613021F481B3E9
S1130620482B41BB0895611104C081B34095482310
S113063041BB0895813051F028F0823059F0833065
S113064069F008958BB3682B6BBB089588B3682B4E
S113065068BB089585B3682B65BB089582B3682B86
S113066062BB0895813059F028F0823069F08330FC
S113067081F008958BB3609568236BBB089588B3AC
S11306806095682368BB089585B36095682365BB4E
S1130690089582B36095682362BB08951F920F92F8
S11306A00FB60F9211242F938F939F93EF93FF9381
S11306B0E0917200F091730086B597B5EE0FFF1FBD
S11306C0E958FF4F91838083809174009091750065
S11306D001969093750080937400809172009091BC
S11306E0730021E0822790937300809372009EB57B
S11306F080E489278EBDFF91EF919F918F912F9177
S11307000F900FBE0F901F901895813031F493B75E
S1130710986093BF99B7926099BF811106C083B75F
S1130720877F83BF89B7816089BF7894089593B721
S1130730892B83BF0895809176008F5F8093760024
S113074080E090E018C0FC01E558FF4F208122238F
S113075089F030917600231711F031110BC042B3A8
S113076021E030E0082E02C0220F331F0A94E2F782
S1130770242722BB0196833091052CF308951F9200
S11307800F920FB60F9211242F933F934F935F93C1
S11307906F937F938F939F93AF93BF93EF93FF9345
S11307A00E949B03FF91EF91BF91AF919F918F9115
S11307B07F916F915F914F913F912F910F900FBE59
S11307C00F901F9018950E94EA036894B1110C943D
S11307D0790408950E945E0488F09F5798F0B92F19
S11307E09927B751B0F0E1F0660F771F881F991F62
S11307F01AF0BA95C9F714C0B13091F00E94780488
S1130800B1E008950C947804672F782F8827B85F97
S113081039F0B93FCCF3869577956795B395D9F7B9
S11308203EF490958095709561957F4F8F4F9F4FC3
S11308300895E89409C097FB3EF4909580957095CF
S113084061957F4F8F4F9F4F9923A9F0F92F96E918
S1130850BB279395F695879577956795B795F1118D
S1130860F8CFFAF4BB0F11F460FF1BC06F5F7F4F2A
S11308708F4F9F4F16C0882311F096E911C077233C
S113088021F09EE8872F762F05C0662371F096E845
S1130890862F70E060E02AF09A95660F771F881F14
S11308A0DAF7880F9695879597F9089557FD90582C
S11308B0440F551F59F05F3F71F04795880F97FB20
S11308C0991F61F09F3F79F08795089512161306DA
S11308D01406551FF2CF4695F1DF08C01616170609
S11308E01806991FF1CF869571056105089408953E
S11308F0E894BB2766277727CB0197F908950E94D0
S113090092040C9403050E94F50438F00E94FC0440
S113091020F0952311F00C94EC040C94F2041124AF
S11309200C9479040E94560470F3959FC1F3950FBB
S113093050E0551F629FF001729FBB27F00DB11D5F
S1130940639FAA27F00DB11DAA1F649F6627B00DEF
S1130950A11D661F829F2227B00DA11D621F739FD8
S1130960B00DA11D621F839FA00D611D221F749FE6
S11309703327A00D611D231F849F600D211D822F2D
S1130980762F6A2F11249F5750409AF0F1F0882354
S11309904AF0EE0FFF1FBB1F661F771F881F915081
S11309A05040A9F79E3F510580F00C94EC040C9440
S11309B079045F3FE4F3983ED4F386957795679581
S11309C0B795F795E7959F5FC1F7FE2B880F911DAB
S11309D09695879597F9089597F99F6780E870E051
S11309E060E008959FEF80EC089500240A941616A1
S11309F0170618060906089500240A941216130609
S1130A00140605060895092E0394000C11F4882396
S1130A1052F0BB0F40F4BF2B11F460FF04C06F5FB2
S10F0A207F4F8F4F9F4F0895F894FFCF35
S1110A2C3F065B4F666D7D077F6F0002000082
S9030000FC
